{
  "_format": "hh-sol-artifact-1",
  "contractName": "AccessControl",
  "sourceName": "contracts/AccessControl.sol",
  "abi": [
    {
      "anonymous": false,
      "inputs": [
        {
          "indexed": true,
          "internalType": "bytes32",
          "name": "permissionId",
          "type": "bytes32"
        },
        {
          "indexed": true,
          "internalType": "address",
          "name": "patientAddress",
          "type": "address"
        },
        {
          "indexed": true,
          "internalType": "address",
          "name": "doctorAddress",
          "type": "address"
        },
        {
          "indexed": false,
          "internalType": "string",
          "name": "reportHash",
          "type": "string"
        },
        {
          "indexed": false,
          "internalType": "uint256",
          "name": "expiresAt",
          "type": "uint256"
        }
      ],
      "name": "AccessGranted",
      "type": "event"
    },
    {
      "anonymous": false,
      "inputs": [
        {
          "indexed": true,
          "internalType": "address",
          "name": "accessor",
          "type": "address"
        },
        {
          "indexed": false,
          "internalType": "string",
          "name": "reportHash",
          "type": "string"
        },
        {
          "indexed": false,
          "internalType": "string",
          "name": "action",
          "type": "string"
        },
        {
          "indexed": false,
          "internalType": "uint256",
          "name": "timestamp",
          "type": "uint256"
        }
      ],
      "name": "AccessLogged",
      "type": "event"
    },
    {
      "anonymous": false,
      "inputs": [
        {
          "indexed": true,
          "internalType": "bytes32",
          "name": "permissionId",
          "type": "bytes32"
        },
        {
          "indexed": true,
          "internalType": "address",
          "name": "patientAddress",
          "type": "address"
        },
        {
          "indexed": true,
          "internalType": "address",
          "name": "doctorAddress",
          "type": "address"
        },
        {
          "indexed": false,
          "internalType": "string",
          "name": "reportHash",
          "type": "string"
        }
      ],
      "name": "AccessRevoked",
      "type": "event"
    },
    {
      "inputs": [
        {
          "internalType": "uint256",
          "name": "",
          "type": "uint256"
        }
      ],
      "name": "accessLogs",
      "outputs": [
        {
          "internalType": "address",
          "name": "accessor",
          "type": "address"
        },
        {
          "internalType": "string",
          "name": "reportHash",
          "type": "string"
        },
        {
          "internalType": "string",
          "name": "action",
          "type": "string"
        },
        {
          "internalType": "uint256",
          "name": "timestamp",
          "type": "uint256"
        }
      ],
      "stateMutability": "view",
      "type": "function"
    },
    {
      "inputs": [
        {
          "internalType": "address",
          "name": "_patientAddress",
          "type": "address"
        },
        {
          "internalType": "address",
          "name": "_doctorAddress",
          "type": "address"
        },
        {
          "internalType": "string",
          "name": "_reportHash",
          "type": "string"
        }
      ],
      "name": "checkAccess",
      "outputs": [
        {
          "internalType": "bool",
          "name": "",
          "type": "bool"
        }
      ],
      "stateMutability": "view",
      "type": "function"
    },
    {
      "inputs": [
        {
          "internalType": "address",
          "name": "",
          "type": "address"
        },
        {
          "internalType": "uint256",
          "name": "",
          "type": "uint256"
        }
      ],
      "name": "doctorPermissions",
      "outputs": [
        {
          "internalType": "bytes32",
          "name": "",
          "type": "bytes32"
        }
      ],
      "stateMutability": "view",
      "type": "function"
    },
    {
      "inputs": [
        {
          "internalType": "address",
          "name": "_patientAddress",
          "type": "address"
        },
        {
          "internalType": "address",
          "name": "_doctorAddress",
          "type": "address"
        },
        {
          "internalType": "string",
          "name": "_reportHash",
          "type": "string"
        }
      ],
      "name": "generatePermissionId",
      "outputs": [
        {
          "internalType": "bytes32",
          "name": "",
          "type": "bytes32"
        }
      ],
      "stateMutability": "pure",
      "type": "function"
    },
    {
      "inputs": [
        {
          "internalType": "uint256",
          "name": "_index",
          "type": "uint256"
        }
      ],
      "name": "getAccessLog",
      "outputs": [
        {
          "internalType": "address",
          "name": "accessor",
          "type": "address"
        },
        {
          "internalType": "string",
          "name": "reportHash",
          "type": "string"
        },
        {
          "internalType": "string",
          "name": "action",
          "type": "string"
        },
        {
          "internalType": "uint256",
          "name": "timestamp",
          "type": "uint256"
        }
      ],
      "stateMutability": "view",
      "type": "function"
    },
    {
      "inputs": [],
      "name": "getAccessLogsCount",
      "outputs": [
        {
          "internalType": "uint256",
          "name": "",
          "type": "uint256"
        }
      ],
      "stateMutability": "view",
      "type": "function"
    },
    {
      "inputs": [
        {
          "internalType": "address",
          "name": "_doctorAddress",
          "type": "address"
        }
      ],
      "name": "getDoctorPermissions",
      "outputs": [
        {
          "internalType": "bytes32[]",
          "name": "",
          "type": "bytes32[]"
        }
      ],
      "stateMutability": "view",
      "type": "function"
    },
    {
      "inputs": [
        {
          "internalType": "address",
          "name": "_patientAddress",
          "type": "address"
        }
      ],
      "name": "getPatientPermissions",
      "outputs": [
        {
          "internalType": "bytes32[]",
          "name": "",
          "type": "bytes32[]"
        }
      ],
      "stateMutability": "view",
      "type": "function"
    },
    {
      "inputs": [
        {
          "internalType": "bytes32",
          "name": "_permissionId",
          "type": "bytes32"
        }
      ],
      "name": "getPermission",
      "outputs": [
        {
          "internalType": "address",
          "name": "patientAddress",
          "type": "address"
        },
        {
          "internalType": "address",
          "name": "doctorAddress",
          "type": "address"
        },
        {
          "internalType": "string",
          "name": "reportHash",
          "type": "string"
        },
        {
          "internalType": "uint256",
          "name": "grantedAt",
          "type": "uint256"
        },
        {
          "internalType": "uint256",
          "name": "expiresAt",
          "type": "uint256"
        },
        {
          "internalType": "bool",
          "name": "isActive",
          "type": "bool"
        }
      ],
      "stateMutability": "view",
      "type": "function"
    },
    {
      "inputs": [
        {
          "internalType": "address",
          "name": "_doctorAddress",
          "type": "address"
        },
        {
          "internalType": "string",
          "name": "_reportHash",
          "type": "string"
        },
        {
          "internalType": "uint256",
          "name": "_expiryTime",
          "type": "uint256"
        }
      ],
      "name": "grantAccess",
      "outputs": [],
      "stateMutability": "nonpayable",
      "type": "function"
    },
    {
      "inputs": [
        {
          "internalType": "address",
          "name": "_accessor",
          "type": "address"
        },
        {
          "internalType": "string",
          "name": "_reportHash",
          "type": "string"
        },
        {
          "internalType": "string",
          "name": "_action",
          "type": "string"
        }
      ],
      "name": "logAccess",
      "outputs": [],
      "stateMutability": "nonpayable",
      "type": "function"
    },
    {
      "inputs": [
        {
          "internalType": "address",
          "name": "",
          "type": "address"
        },
        {
          "internalType": "uint256",
          "name": "",
          "type": "uint256"
        }
      ],
      "name": "patientPermissions",
      "outputs": [
        {
          "internalType": "bytes32",
          "name": "",
          "type": "bytes32"
        }
      ],
      "stateMutability": "view",
      "type": "function"
    },
    {
      "inputs": [
        {
          "internalType": "bytes32",
          "name": "",
          "type": "bytes32"
        }
      ],
      "name": "permissions",
      "outputs": [
        {
          "internalType": "address",
          "name": "patientAddress",
          "type": "address"
        },
        {
          "internalType": "address",
          "name": "doctorAddress",
          "type": "address"
        },
        {
          "internalType": "string",
          "name": "reportHash",
          "type": "string"
        },
        {
          "internalType": "uint256",
          "name": "grantedAt",
          "type": "uint256"
        },
        {
          "internalType": "uint256",
          "name": "expiresAt",
          "type": "uint256"
        },
        {
          "internalType": "bool",
          "name": "isActive",
          "type": "bool"
        },
        {
          "internalType": "bool",
          "name": "exists",
          "type": "bool"
        }
      ],
      "stateMutability": "view",
      "type": "function"
    },
    {
      "inputs": [
        {
          "internalType": "address",
          "name": "_doctorAddress",
          "type": "address"
        },
        {
          "internalType": "string",
          "name": "_reportHash",
          "type": "string"
        }
      ],
      "name": "revokeAccess",
      "outputs": [],
      "stateMutability": "nonpayable",
      "type": "function"
    }
  ],
  "bytecode": "0x608060405234801561001057600080fd5b50612305806100206000396000f3fe608060405234801561001057600080fd5b50600436106100ea5760003560e01c80637f93a9611161008c578063996e2b8411610066578063996e2b841461028c578063a352b92e146102bc578063b4d2388f146102ec578063bfe9ee9b14610322576100ea565b80637f93a9611461021057806386c9b77c1461022c5780638c0b6b1c1461025c576100ea565b80636320644f116100c85780636320644f1461017557806366e66310146101a5578063685d5b8b146101c15780636a44cac9146101f4576100ea565b806333828891146100ef57806333d331671461010d57806359741ba014610142575b600080fd5b6100f7610352565b6040516101049190611492565b60405180910390f35b610127600480360381019061012291906114f7565b61035f565b60405161013996959493929190611610565b60405180910390f35b61015c600480360381019061015791906116a4565b6105a8565b60405161016c94939291906116d1565b60405180910390f35b61018f600480360381019061018a9190611885565b610718565b60405161019c9190611903565b60405180910390f35b6101bf60048036038101906101ba919061191e565b61074e565b005b6101db60048036038101906101d691906116a4565b610886565b6040516101eb94939291906116d1565b60405180910390f35b61020e600480360381019061020991906119a9565b610aad565b005b61022a60048036038101906102259190611a05565b610c9a565b005b61024660048036038101906102419190611a74565b611102565b6040516102539190611b5f565b60405180910390f35b61027660048036038101906102719190611a74565b611199565b6040516102839190611b5f565b60405180910390f35b6102a660048036038101906102a19190611b81565b611230565b6040516102b39190611903565b60405180910390f35b6102d660048036038101906102d19190611b81565b611261565b6040516102e39190611903565b60405180910390f35b610306600480360381019061030191906114f7565b611292565b6040516103199796959493929190611bc1565b60405180910390f35b61033c60048036038101906103379190611885565b6113b6565b6040516103499190611c37565b60405180910390f35b6000600380549050905090565b6000806060600080600080600088815260200190815260200160002060050160019054906101000a900460ff166103cb576040517f08c379a00000000000000000000000000000000000000000000000000000000081526004016103c290611c9e565b60405180910390fd5b60008060008981526020019081526020016000206040518060e00160405290816000820160009054906101000a900473ffffffffffffffffffffffffffffffffffffffff1673ffffffffffffffffffffffffffffffffffffffff1673ffffffffffffffffffffffffffffffffffffffff1681526020016001820160009054906101000a900473ffffffffffffffffffffffffffffffffffffffff1673ffffffffffffffffffffffffffffffffffffffff1673ffffffffffffffffffffffffffffffffffffffff1681526020016002820180546104a690611ced565b80601f01602080910402602001604051908101604052809291908181526020018280546104d290611ced565b801561051f5780601f106104f45761010080835404028352916020019161051f565b820191906000526020600020905b81548152906001019060200180831161050257829003601f168201915b5050505050815260200160038201548152602001600482015481526020016005820160009054906101000a900460ff161515151581526020016005820160019054906101000a900460ff1615151515815250509050806000015181602001518260400151836060015184608001518560a001519650965096509650965096505091939550919395565b600381815481106105b857600080fd5b90600052602060002090600402016000915090508060000160009054906101000a900473ffffffffffffffffffffffffffffffffffffffff169080600101805461060190611ced565b80601f016020809104026020016040519081016040528092919081815260200182805461062d90611ced565b801561067a5780601f1061064f5761010080835404028352916020019161067a565b820191906000526020600020905b81548152906001019060200180831161065d57829003601f168201915b50505050509080600201805461068f90611ced565b80601f01602080910402602001604051908101604052809291908181526020018280546106bb90611ced565b80156107085780601f106106dd57610100808354040283529160200191610708565b820191906000526020600020905b8154815290600101906020018083116106eb57829003601f168201915b5050505050908060030154905084565b600083838360405160200161072f93929190611da2565b6040516020818303038152906040528051906020012090509392505050565b600360405180608001604052808573ffffffffffffffffffffffffffffffffffffffff16815260200184815260200183815260200142815250908060018154018082558091505060019003906000526020600020906004020160009091909190915060008201518160000160006101000a81548173ffffffffffffffffffffffffffffffffffffffff021916908373ffffffffffffffffffffffffffffffffffffffff160217905550602082015181600101908161080c9190611f87565b5060408201518160020190816108229190611f87565b506060820151816003015550508273ffffffffffffffffffffffffffffffffffffffff167f53d5eb3cb27bb2ae776b21eeb1ced0b3e736592e3939bb331048b76d0b646e2a83834260405161087993929190612059565b60405180910390a2505050565b6000606080600060038054905085106108d4576040517f08c379a00000000000000000000000000000000000000000000000000000000081526004016108cb906120ea565b60405180910390fd5b6000600386815481106108ea576108e961210a565b5b90600052602060002090600402016040518060800160405290816000820160009054906101000a900473ffffffffffffffffffffffffffffffffffffffff1673ffffffffffffffffffffffffffffffffffffffff1673ffffffffffffffffffffffffffffffffffffffff16815260200160018201805461096990611ced565b80601f016020809104026020016040519081016040528092919081815260200182805461099590611ced565b80156109e25780601f106109b7576101008083540402835291602001916109e2565b820191906000526020600020905b8154815290600101906020018083116109c557829003601f168201915b505050505081526020016002820180546109fb90611ced565b80601f0160208091040260200160405190810160405280929190818152602001828054610a2790611ced565b8015610a745780601f10610a4957610100808354040283529160200191610a74565b820191906000526020600020905b815481529060010190602001808311610a5757829003601f168201915b50505050508152602001600382015481525050905080600001518160200151826040015183606001519450945094509450509193509193565b6000610aba338484610718565b905060008082815260200190815260200160002060050160019054906101000a900460ff16610b1e576040517f08c379a0000000000000000000000000000000000000000000000000000000008152600401610b1590611c9e565b60405180910390fd5b3373ffffffffffffffffffffffffffffffffffffffff1660008083815260200190815260200160002060000160009054906101000a900473ffffffffffffffffffffffffffffffffffffffff1673ffffffffffffffffffffffffffffffffffffffff1614610bc1576040517f08c379a0000000000000000000000000000000000000000000000000000000008152600401610bb890612185565b60405180910390fd5b600080600083815260200190815260200160002060050160006101000a81548160ff0219169083151502179055508273ffffffffffffffffffffffffffffffffffffffff163373ffffffffffffffffffffffffffffffffffffffff16827f2147413ef447540c36391b30682da13fd0555b013f91ae13c672be3424b9255b85604051610c4d91906121a5565b60405180910390a4610c9533836040518060400160405280600d81526020017f5245564f4b455f4143434553530000000000000000000000000000000000000081525061074e565b505050565b600073ffffffffffffffffffffffffffffffffffffffff168373ffffffffffffffffffffffffffffffffffffffff1603610d09576040517f08c379a0000000000000000000000000000000000000000000000000000000008152600401610d0090612213565b60405180910390fd5b3373ffffffffffffffffffffffffffffffffffffffff168373ffffffffffffffffffffffffffffffffffffffff1603610d77576040517f08c379a0000000000000000000000000000000000000000000000000000000008152600401610d6e9061227f565b60405180910390fd5b6000610d84338585610718565b905060008082815260200190815260200160002060050160019054906101000a900460ff1615610e1557600160008083815260200190815260200160002060050160006101000a81548160ff02191690831515021790555042600080838152602001908152602001600020600301819055508160008083815260200190815260200160002060040181905550611054565b6040518060e001604052803373ffffffffffffffffffffffffffffffffffffffff1681526020018573ffffffffffffffffffffffffffffffffffffffff1681526020018481526020014281526020018381526020016001151581526020016001151581525060008083815260200190815260200160002060008201518160000160006101000a81548173ffffffffffffffffffffffffffffffffffffffff021916908373ffffffffffffffffffffffffffffffffffffffff16021790555060208201518160010160006101000a81548173ffffffffffffffffffffffffffffffffffffffff021916908373ffffffffffffffffffffffffffffffffffffffff1602179055506040820151816002019081610f2f9190611f87565b50606082015181600301556080820151816004015560a08201518160050160006101000a81548160ff02191690831515021790555060c08201518160050160016101000a81548160ff021916908315150217905550905050600160003373ffffffffffffffffffffffffffffffffffffffff1673ffffffffffffffffffffffffffffffffffffffff168152602001908152602001600020819080600181540180825580915050600190039060005260206000200160009091909190915055600260008573ffffffffffffffffffffffffffffffffffffffff1673ffffffffffffffffffffffffffffffffffffffff1681526020019081526020016000208190806001815401808255809150506001900390600052602060002001600090919091909150555b8373ffffffffffffffffffffffffffffffffffffffff163373ffffffffffffffffffffffffffffffffffffffff16827fe487460a4be088614423e6b8b9b73f785ca4268e4cf4b5db39a77cb716d9ee2286866040516110b492919061229f565b60405180910390a46110fc33846040518060400160405280600c81526020017f4752414e545f414343455353000000000000000000000000000000000000000081525061074e565b50505050565b6060600260008373ffffffffffffffffffffffffffffffffffffffff1673ffffffffffffffffffffffffffffffffffffffff16815260200190815260200160002080548060200260200160405190810160405280929190818152602001828054801561118d57602002820191906000526020600020905b815481526020019060010190808311611179575b50505050509050919050565b6060600160008373ffffffffffffffffffffffffffffffffffffffff1673ffffffffffffffffffffffffffffffffffffffff16815260200190815260200160002080548060200260200160405190810160405280929190818152602001828054801561122457602002820191906000526020600020905b815481526020019060010190808311611210575b50505050509050919050565b6002602052816000526040600020818154811061124c57600080fd5b90600052602060002001600091509150505481565b6001602052816000526040600020818154811061127d57600080fd5b90600052602060002001600091509150505481565b60006020528060005260406000206000915090508060000160009054906101000a900473ffffffffffffffffffffffffffffffffffffffff16908060010160009054906101000a900473ffffffffffffffffffffffffffffffffffffffff169080600201805461130190611ced565b80601f016020809104026020016040519081016040528092919081815260200182805461132d90611ced565b801561137a5780601f1061134f5761010080835404028352916020019161137a565b820191906000526020600020905b81548152906001019060200180831161135d57829003601f168201915b5050505050908060030154908060040154908060050160009054906101000a900460ff16908060050160019054906101000a900460ff16905087565b6000806113c4858585610718565b905060008082815260200190815260200160002060050160019054906101000a900460ff161580611415575060008082815260200190815260200160002060050160009054906101000a900460ff16155b15611424576000915050611472565b60008060008381526020019081526020016000206004015411801561145d57506000808281526020019081526020016000206004015442115b1561146c576000915050611472565b60019150505b9392505050565b6000819050919050565b61148c81611479565b82525050565b60006020820190506114a76000830184611483565b92915050565b6000604051905090565b600080fd5b600080fd5b6000819050919050565b6114d4816114c1565b81146114df57600080fd5b50565b6000813590506114f1816114cb565b92915050565b60006020828403121561150d5761150c6114b7565b5b600061151b848285016114e2565b91505092915050565b600073ffffffffffffffffffffffffffffffffffffffff82169050919050565b600061154f82611524565b9050919050565b61155f81611544565b82525050565b600081519050919050565b600082825260208201905092915050565b60005b8381101561159f578082015181840152602081019050611584565b60008484015250505050565b6000601f19601f8301169050919050565b60006115c782611565565b6115d18185611570565b93506115e1818560208601611581565b6115ea816115ab565b840191505092915050565b60008115159050919050565b61160a816115f5565b82525050565b600060c0820190506116256000830189611556565b6116326020830188611556565b818103604083015261164481876115bc565b90506116536060830186611483565b6116606080830185611483565b61166d60a0830184611601565b979650505050505050565b61168181611479565b811461168c57600080fd5b50565b60008135905061169e81611678565b92915050565b6000602082840312156116ba576116b96114b7565b5b60006116c88482850161168f565b91505092915050565b60006080820190506116e66000830187611556565b81810360208301526116f881866115bc565b9050818103604083015261170c81856115bc565b905061171b6060830184611483565b95945050505050565b61172d81611544565b811461173857600080fd5b50565b60008135905061174a81611724565b92915050565b600080fd5b600080fd5b7f4e487b7100000000000000000000000000000000000000000000000000000000600052604160045260246000fd5b611792826115ab565b810181811067ffffffffffffffff821117156117b1576117b061175a565b5b80604052505050565b60006117c46114ad565b90506117d08282611789565b919050565b600067ffffffffffffffff8211156117f0576117ef61175a565b5b6117f9826115ab565b9050602081019050919050565b82818337600083830152505050565b6000611828611823846117d5565b6117ba565b90508281526020810184848401111561184457611843611755565b5b61184f848285611806565b509392505050565b600082601f83011261186c5761186b611750565b5b813561187c848260208601611815565b91505092915050565b60008060006060848603121561189e5761189d6114b7565b5b60006118ac8682870161173b565b93505060206118bd8682870161173b565b925050604084013567ffffffffffffffff8111156118de576118dd6114bc565b5b6118ea86828701611857565b9150509250925092565b6118fd816114c1565b82525050565b600060208201905061191860008301846118f4565b92915050565b600080600060608486031215611937576119366114b7565b5b60006119458682870161173b565b935050602084013567ffffffffffffffff811115611966576119656114bc565b5b61197286828701611857565b925050604084013567ffffffffffffffff811115611993576119926114bc565b5b61199f86828701611857565b9150509250925092565b600080604083850312156119c0576119bf6114b7565b5b60006119ce8582860161173b565b925050602083013567ffffffffffffffff8111156119ef576119ee6114bc565b5b6119fb85828601611857565b9150509250929050565b600080600060608486031215611a1e57611a1d6114b7565b5b6000611a2c8682870161173b565b935050602084013567ffffffffffffffff811115611a4d57611a4c6114bc565b5b611a5986828701611857565b9250506040611a6a8682870161168f565b9150509250925092565b600060208284031215611a8a57611a896114b7565b5b6000611a988482850161173b565b91505092915050565b600081519050919050565b600082825260208201905092915050565b6000819050602082019050919050565b611ad6816114c1565b82525050565b6000611ae88383611acd565b60208301905092915050565b6000602082019050919050565b6000611b0c82611aa1565b611b168185611aac565b9350611b2183611abd565b8060005b83811015611b52578151611b398882611adc565b9750611b4483611af4565b925050600181019050611b25565b5085935050505092915050565b60006020820190508181036000830152611b798184611b01565b905092915050565b60008060408385031215611b9857611b976114b7565b5b6000611ba68582860161173b565b9250506020611bb78582860161168f565b9150509250929050565b600060e082019050611bd6600083018a611556565b611be36020830189611556565b8181036040830152611bf581886115bc565b9050611c046060830187611483565b611c116080830186611483565b611c1e60a0830185611601565b611c2b60c0830184611601565b98975050505050505050565b6000602082019050611c4c6000830184611601565b92915050565b7f5065726d697373696f6e20646f6573206e6f7420657869737400000000000000600082015250565b6000611c88601983611570565b9150611c9382611c52565b602082019050919050565b60006020820190508181036000830152611cb781611c7b565b9050919050565b7f4e487b7100000000000000000000000000000000000000000000000000000000600052602260045260246000fd5b60006002820490506001821680611d0557607f821691505b602082108103611d1857611d17611cbe565b5b50919050565b60008160601b9050919050565b6000611d3682611d1e565b9050919050565b6000611d4882611d2b565b9050919050565b611d60611d5b82611544565b611d3d565b82525050565b600081905092915050565b6000611d7c82611565565b611d868185611d66565b9350611d96818560208601611581565b80840191505092915050565b6000611dae8286611d4f565b601482019150611dbe8285611d4f565b601482019150611dce8284611d71565b9150819050949350505050565b60008190508160005260206000209050919050565b60006020601f8301049050919050565b600082821b905092915050565b600060088302611e3d7fffffffffffffffffffffffffffffffffffffffffffffffffffffffffffffffff82611e00565b611e478683611e00565b95508019841693508086168417925050509392505050565b6000819050919050565b6000611e84611e7f611e7a84611479565b611e5f565b611479565b9050919050565b6000819050919050565b611e9e83611e69565b611eb2611eaa82611e8b565b848454611e0d565b825550505050565b600090565b611ec7611eba565b611ed2818484611e95565b505050565b5b81811015611ef657611eeb600082611ebf565b600181019050611ed8565b5050565b601f821115611f3b57611f0c81611ddb565b611f1584611df0565b81016020851015611f24578190505b611f38611f3085611df0565b830182611ed7565b50505b505050565b600082821c905092915050565b6000611f5e60001984600802611f40565b1980831691505092915050565b6000611f778383611f4d565b9150826002028217905092915050565b611f9082611565565b67ffffffffffffffff811115611fa957611fa861175a565b5b611fb38254611ced565b611fbe828285611efa565b600060209050601f831160018114611ff15760008415611fdf578287015190505b611fe98582611f6b565b865550612051565b601f198416611fff86611ddb565b60005b8281101561202757848901518255600182019150602085019450602081019050612002565b868310156120445784890151612040601f891682611f4d565b8355505b6001600288020188555050505b505050505050565b6000606082019050818103600083015261207381866115bc565b9050818103602083015261208781856115bc565b90506120966040830184611483565b949350505050565b7f496e646578206f7574206f6620626f756e647300000000000000000000000000600082015250565b60006120d4601383611570565b91506120df8261209e565b602082019050919050565b60006020820190508181036000830152612103816120c7565b9050919050565b7f4e487b7100000000000000000000000000000000000000000000000000000000600052603260045260246000fd5b7f4e6f7420617574686f72697a6564000000000000000000000000000000000000600082015250565b600061216f600e83611570565b915061217a82612139565b602082019050919050565b6000602082019050818103600083015261219e81612162565b9050919050565b600060208201905081810360008301526121bf81846115bc565b905092915050565b7f496e76616c696420646f63746f72206164647265737300000000000000000000600082015250565b60006121fd601683611570565b9150612208826121c7565b602082019050919050565b6000602082019050818103600083015261222c816121f0565b9050919050565b7f43616e6e6f74206772616e742061636365737320746f20796f757273656c6600600082015250565b6000612269601f83611570565b915061227482612233565b602082019050919050565b600060208201905081810360008301526122988161225c565b9050919050565b600060408201905081810360008301526122b981856115bc565b90506122c86020830184611483565b939250505056fea2646970667358221220f5b90b9dd52c440b3c9fed6d54e65a80ad341264c96bc401cd53281b99e9513c64736f6c63430008140033",
  "linkReferences": {},
  "deployedLinkReferences": {}
}