{
  "_format": "hh-sol-artifact-1",
  "contractName": "MedicalRecords",
  "sourceName": "contracts/MedicalRecords.sol",
  "abi": [
    {
      "anonymous": false,
      "inputs": [
        {
          "indexed": true,
          "internalType": "string",
          "name": "fileHash",
          "type": "string"
        },
        {
          "indexed": true,
          "internalType": "address",
          "name": "patientAddress",
          "type": "address"
        },
        {
          "indexed": false,
          "internalType": "uint256",
          "name": "timestamp",
          "type": "uint256"
        }
      ],
      "name": "ReportRegistered",
      "type": "event"
    },
    {
      "anonymous": false,
      "inputs": [
        {
          "indexed": true,
          "internalType": "string",
          "name": "fileHash",
          "type": "string"
        },
        {
          "indexed": true,
          "internalType": "address",
          "name": "verifier",
          "type": "address"
        },
        {
          "indexed": false,
          "internalType": "uint256",
          "name": "timestamp",
          "type": "uint256"
        }
      ],
      "name": "ReportVerified",
      "type": "event"
    },
    {
      "inputs": [
        {
          "internalType": "address",
          "name": "_patientAddress",
          "type": "address"
        }
      ],
      "name": "getPatientReports",
      "outputs": [
        {
          "internalType": "string[]",
          "name": "",
          "type": "string[]"
        }
      ],
      "stateMutability": "view",
      "type": "function"
    },
    {
      "inputs": [
        {
          "internalType": "string",
          "name": "_fileHash",
          "type": "string"
        }
      ],
      "name": "getReportDetails",
      "outputs": [
        {
          "internalType": "string",
          "name": "fileHash",
          "type": "string"
        },
        {
          "internalType": "address",
          "name": "patientAddress",
          "type": "address"
        },
        {
          "internalType": "uint256",
          "name": "timestamp",
          "type": "uint256"
        }
      ],
      "stateMutability": "view",
      "type": "function"
    },
    {
      "inputs": [
        {
          "internalType": "string",
          "name": "_fileHash",
          "type": "string"
        }
      ],
      "name": "getReportOwner",
      "outputs": [
        {
          "internalType": "address",
          "name": "",
          "type": "address"
        }
      ],
      "stateMutability": "view",
      "type": "function"
    },
    {
      "inputs": [
        {
          "internalType": "address",
          "name": "",
          "type": "address"
        },
        {
          "internalType": "uint256",
          "name": "",
          "type": "uint256"
        }
      ],
      "name": "patientReports",
      "outputs": [
        {
          "internalType": "string",
          "name": "",
          "type": "string"
        }
      ],
      "stateMutability": "view",
      "type": "function"
    },
    {
      "inputs": [
        {
          "internalType": "string",
          "name": "_fileHash",
          "type": "string"
        }
      ],
      "name": "registerReport",
      "outputs": [],
      "stateMutability": "nonpayable",
      "type": "function"
    },
    {
      "inputs": [
        {
          "internalType": "string",
          "name": "",
          "type": "string"
        }
      ],
      "name": "reports",
      "outputs": [
        {
          "internalType": "string",
          "name": "fileHash",
          "type": "string"
        },
        {
          "internalType": "address",
          "name": "patientAddress",
          "type": "address"
        },
        {
          "internalType": "uint256",
          "name": "timestamp",
          "type": "uint256"
        },
        {
          "internalType": "bool",
          "name": "exists",
          "type": "bool"
        }
      ],
      "stateMutability": "view",
      "type": "function"
    },
    {
      "inputs": [
        {
          "internalType": "string",
          "name": "_fileHash",
          "type": "string"
        },
        {
          "internalType": "address",
          "name": "_patientAddress",
          "type": "address"
        }
      ],
      "name": "verifyReport",
      "outputs": [
        {
          "internalType": "bool",
          "name": "",
          "type": "bool"
        }
      ],
      "stateMutability": "nonpayable",
      "type": "function"
    }
  ],
  "bytecode": "0x608060405234801561001057600080fd5b50611483806100206000396000f3fe608060405234801561001057600080fd5b506004361061007d5760003560e01c80636c8889d31161005b5780636c8889d314610117578063946a9e8414610133578063e65a069114610163578063fb986606146101935761007d565b80632c94f7491461008257806355fe97ac146100b457806364cceaef146100e4575b600080fd5b61009c60048036038101906100979190610bbb565b6101c3565b6040516100ab93929190610cdd565b60405180910390f35b6100ce60048036038101906100c99190610d47565b61038c565b6040516100db9190610dbe565b60405180910390f35b6100fe60048036038101906100f99190610bbb565b6104b3565b60405161010e9493929190610dd9565b60405180910390f35b610131600480360381019061012c9190610bbb565b6105ae565b005b61014d60048036038101906101489190610bbb565b6107d8565b60405161015a9190610e25565b60405180910390f35b61017d60048036038101906101789190610e40565b610890565b60405161018a9190610f79565b60405180910390f35b6101ad60048036038101906101a89190610fc7565b6109a8565b6040516101ba9190611007565b60405180910390f35b60606000806000846040516101d89190611065565b908152602001604051809103902060030160009054906101000a900460ff16610236576040517f08c379a000000000000000000000000000000000000000000000000000000000815260040161022d906110c8565b60405180910390fd5b600080856040516102479190611065565b908152602001604051809103902060405180608001604052908160008201805461027090611117565b80601f016020809104026020016040519081016040528092919081815260200182805461029c90611117565b80156102e95780601f106102be576101008083540402835291602001916102e9565b820191906000526020600020905b8154815290600101906020018083116102cc57829003601f168201915b505050505081526020016001820160009054906101000a900473ffffffffffffffffffffffffffffffffffffffff1673ffffffffffffffffffffffffffffffffffffffff1673ffffffffffffffffffffffffffffffffffffffff168152602001600282015481526020016003820160009054906101000a900460ff1615151515815250509050806000015181602001518260400151935093509350509193909250565b6000808360405161039d9190611065565b908152602001604051809103902060030160009054906101000a900460ff166103c957600090506104ad565b60008273ffffffffffffffffffffffffffffffffffffffff166000856040516103f29190611065565b908152602001604051809103902060010160009054906101000a900473ffffffffffffffffffffffffffffffffffffffff1673ffffffffffffffffffffffffffffffffffffffff1614905080156104a8573373ffffffffffffffffffffffffffffffffffffffff16846040516104689190611065565b60405180910390207fc7f7584694d7e7febf34d9c68b88c1ab1d1b8eed63aa3d338336e2f661038ae64260405161049f9190611148565b60405180910390a35b809150505b92915050565b6000818051602081018201805184825260208301602085012081835280955050505050506000915090508060000180546104ec90611117565b80601f016020809104026020016040519081016040528092919081815260200182805461051890611117565b80156105655780601f1061053a57610100808354040283529160200191610565565b820191906000526020600020905b81548152906001019060200180831161054857829003601f168201915b5050505050908060010160009054906101000a900473ffffffffffffffffffffffffffffffffffffffff16908060020154908060030160009054906101000a900460ff16905084565b6000816040516105be9190611065565b908152602001604051809103902060030160009054906101000a900460ff161561061d576040517f08c379a0000000000000000000000000000000000000000000000000000000008152600401610614906111af565b60405180910390fd5b60405180608001604052808281526020013373ffffffffffffffffffffffffffffffffffffffff168152602001428152602001600115158152506000826040516106679190611065565b9081526020016040518091039020600082015181600001908161068a919061137b565b5060208201518160010160006101000a81548173ffffffffffffffffffffffffffffffffffffffff021916908373ffffffffffffffffffffffffffffffffffffffff1602179055506040820151816002015560608201518160030160006101000a81548160ff021916908315150217905550905050600160003373ffffffffffffffffffffffffffffffffffffffff1673ffffffffffffffffffffffffffffffffffffffff16815260200190815260200160002081908060018154018082558091505060019003906000526020600020016000909190919091509081610770919061137b565b503373ffffffffffffffffffffffffffffffffffffffff16816040516107969190611065565b60405180910390207f9d47bfc4462670bdc9ad0f781026431bdb8e8ab133f52cd70cc4f2270ecd168f426040516107cd9190611148565b60405180910390a350565b600080826040516107e99190611065565b908152602001604051809103902060030160009054906101000a900460ff16610847576040517f08c379a000000000000000000000000000000000000000000000000000000000815260040161083e906110c8565b60405180910390fd5b6000826040516108579190611065565b908152602001604051809103902060010160009054906101000a900473ffffffffffffffffffffffffffffffffffffffff169050919050565b6060600160008373ffffffffffffffffffffffffffffffffffffffff1673ffffffffffffffffffffffffffffffffffffffff168152602001908152602001600020805480602002602001604051908101604052809291908181526020016000905b8282101561099d57838290600052602060002001805461091090611117565b80601f016020809104026020016040519081016040528092919081815260200182805461093c90611117565b80156109895780601f1061095e57610100808354040283529160200191610989565b820191906000526020600020905b81548152906001019060200180831161096c57829003601f168201915b5050505050815260200190600101906108f1565b505050509050919050565b600160205281600052604060002081815481106109c457600080fd5b906000526020600020016000915091505080546109e090611117565b80601f0160208091040260200160405190810160405280929190818152602001828054610a0c90611117565b8015610a595780601f10610a2e57610100808354040283529160200191610a59565b820191906000526020600020905b815481529060010190602001808311610a3c57829003601f168201915b505050505081565b6000604051905090565b600080fd5b600080fd5b600080fd5b600080fd5b6000601f19601f8301169050919050565b7f4e487b7100000000000000000000000000000000000000000000000000000000600052604160045260246000fd5b610ac882610a7f565b810181811067ffffffffffffffff82111715610ae757610ae6610a90565b5b80604052505050565b6000610afa610a61565b9050610b068282610abf565b919050565b600067ffffffffffffffff821115610b2657610b25610a90565b5b610b2f82610a7f565b9050602081019050919050565b82818337600083830152505050565b6000610b5e610b5984610b0b565b610af0565b905082815260208101848484011115610b7a57610b79610a7a565b5b610b85848285610b3c565b509392505050565b600082601f830112610ba257610ba1610a75565b5b8135610bb2848260208601610b4b565b91505092915050565b600060208284031215610bd157610bd0610a6b565b5b600082013567ffffffffffffffff811115610bef57610bee610a70565b5b610bfb84828501610b8d565b91505092915050565b600081519050919050565b600082825260208201905092915050565b60005b83811015610c3e578082015181840152602081019050610c23565b60008484015250505050565b6000610c5582610c04565b610c5f8185610c0f565b9350610c6f818560208601610c20565b610c7881610a7f565b840191505092915050565b600073ffffffffffffffffffffffffffffffffffffffff82169050919050565b6000610cae82610c83565b9050919050565b610cbe81610ca3565b82525050565b6000819050919050565b610cd781610cc4565b82525050565b60006060820190508181036000830152610cf78186610c4a565b9050610d066020830185610cb5565b610d136040830184610cce565b949350505050565b610d2481610ca3565b8114610d2f57600080fd5b50565b600081359050610d4181610d1b565b92915050565b60008060408385031215610d5e57610d5d610a6b565b5b600083013567ffffffffffffffff811115610d7c57610d7b610a70565b5b610d8885828601610b8d565b9250506020610d9985828601610d32565b9150509250929050565b60008115159050919050565b610db881610da3565b82525050565b6000602082019050610dd36000830184610daf565b92915050565b60006080820190508181036000830152610df38187610c4a565b9050610e026020830186610cb5565b610e0f6040830185610cce565b610e1c6060830184610daf565b95945050505050565b6000602082019050610e3a6000830184610cb5565b92915050565b600060208284031215610e5657610e55610a6b565b5b6000610e6484828501610d32565b91505092915050565b600081519050919050565b600082825260208201905092915050565b6000819050602082019050919050565b600082825260208201905092915050565b6000610eb582610c04565b610ebf8185610e99565b9350610ecf818560208601610c20565b610ed881610a7f565b840191505092915050565b6000610eef8383610eaa565b905092915050565b6000602082019050919050565b6000610f0f82610e6d565b610f198185610e78565b935083602082028501610f2b85610e89565b8060005b85811015610f675784840389528151610f488582610ee3565b9450610f5383610ef7565b925060208a01995050600181019050610f2f565b50829750879550505050505092915050565b60006020820190508181036000830152610f938184610f04565b905092915050565b610fa481610cc4565b8114610faf57600080fd5b50565b600081359050610fc181610f9b565b92915050565b60008060408385031215610fde57610fdd610a6b565b5b6000610fec85828601610d32565b9250506020610ffd85828601610fb2565b9150509250929050565b600060208201905081810360008301526110218184610c4a565b905092915050565b600081905092915050565b600061103f82610c04565b6110498185611029565b9350611059818560208601610c20565b80840191505092915050565b60006110718284611034565b915081905092915050565b7f5265706f727420646f6573206e6f742065786973740000000000000000000000600082015250565b60006110b2601583610c0f565b91506110bd8261107c565b602082019050919050565b600060208201905081810360008301526110e1816110a5565b9050919050565b7f4e487b7100000000000000000000000000000000000000000000000000000000600052602260045260246000fd5b6000600282049050600182168061112f57607f821691505b602082108103611142576111416110e8565b5b50919050565b600060208201905061115d6000830184610cce565b92915050565b7f5265706f727420616c7265616479207265676973746572656400000000000000600082015250565b6000611199601983610c0f565b91506111a482611163565b602082019050919050565b600060208201905081810360008301526111c88161118c565b9050919050565b60008190508160005260206000209050919050565b60006020601f8301049050919050565b600082821b905092915050565b6000600883026112317fffffffffffffffffffffffffffffffffffffffffffffffffffffffffffffffff826111f4565b61123b86836111f4565b95508019841693508086168417925050509392505050565b6000819050919050565b600061127861127361126e84610cc4565b611253565b610cc4565b9050919050565b6000819050919050565b6112928361125d565b6112a661129e8261127f565b848454611201565b825550505050565b600090565b6112bb6112ae565b6112c6818484611289565b505050565b5b818110156112ea576112df6000826112b3565b6001810190506112cc565b5050565b601f82111561132f57611300816111cf565b611309846111e4565b81016020851015611318578190505b61132c611324856111e4565b8301826112cb565b50505b505050565b600082821c905092915050565b600061135260001984600802611334565b1980831691505092915050565b600061136b8383611341565b9150826002028217905092915050565b61138482610c04565b67ffffffffffffffff81111561139d5761139c610a90565b5b6113a78254611117565b6113b28282856112ee565b600060209050601f8311600181146113e557600084156113d3578287015190505b6113dd858261135f565b865550611445565b601f1984166113f3866111cf565b60005b8281101561141b578489015182556001820191506020850194506020810190506113f6565b868310156114385784890151611434601f891682611341565b8355505b6001600288020188555050505b50505050505056fea26469706673582212206e5a2e7d0075b11242b907791ddfb7af010394fff2e1e1cc55b88a4712e1f67d64736f6c63430008140033",
  "linkReferences": {},
  "deployedLinkReferences": {}
}